:020000040000fa
:080000000002040000000000f2
:020000040000fa
:10000800d0020000940200009a020000a002000042
:10001800a6020000ac020000d0020000d0020000de
:10002800d0020000d0020000d0020000a61d00008f
:10003800d0020000d0020000d0020000d002000070
:10004800d0020000d0020000d0020000e81c00002e
:100058000a1d0000d6190000d0020000d0020000de
:10006800d0020000d0020000d0020000d002000040
:10007800d0020000d0020000d0020000d002000030
:10008800d0020000d0020000d0020000da1b0000fd
:10009800d0020000d0020000d0020000d002000010
:1000a800d0020000d0020000d0020000d002000000
:1000b800d0020000d0020000d0020000d0020000f0
:1000c800d0020000d0020000d0020000d0020000e0
:1000d800d0020000d0020000d0020000d0020000d0
:1000e800d0020000d0020000d0020000d0020000c0
:1000f800d0020000d0020000d0020000d0020000b0
:10010800d0020000d0020000d0020000d00200009f
:10011800d0020000d0020000d0020000d00200008f
:10012800d0020000d0020000d0020000d00200007f
:10013800d0020000d0020000d0020000d00200006f
:10014800d0020000d0020000d0020000d00200005f
:10015800d0020000d0020000d0020000d00200004f
:10016800d0020000d0020000d0020000d00200003f
:10017800d0020000d0020000d0020000d00200002f
:10018800d0020000d0020000d0020000d00200001f
:10019800d0020000d0020000d0020000d00200000f
:1001a800d0020000d0020000d0020000d0020000ff
:1001b800d0020000d0020000d0020000d0020000ef
:1001c800d0020000d0020000d0020000d0020000df
:1001d800d0020000d0020000d0020000d0020000cf
:1001e800d0020000d0020000d0020000d0020000bf
:0801f800d0020000d00200005b
:020000040000fa
:10020800d0020000b2020000b8020000be020000e6
:10021800c4020000ca020000d0020000d0020000a0
:10022800d0020000d0020000d0020000a61d00008d
:10023800d0020000d0020000d0020000d00200006e
:10024800d0020000d0020000d0020000e81c00002c
:100258000a1d0000d6190000d0020000d0020000dc
:10026800d0020000d0020000d0020000d00200003e
:10027800d0020000d0020000d0020000d00200002e
:10028800d0020000d0020000d0020000da1b0000fb
:10029800d0020000d0020000d0020000d00200000e
:1002a800d0020000d0020000d0020000d0020000fe
:1002b800d0020000d0020000d0020000d0020000ee
:1002c800d0020000d0020000d0020000d0020000de
:1002d800d0020000d0020000d0020000d0020000ce
:1002e800d0020000d0020000d0020000d0020000be
:1002f800d0020000d0020000d0020000d0020000ae
:10030800d0020000d0020000d0020000d00200009d
:10031800d0020000d0020000d0020000d00200008d
:10032800d0020000d0020000d0020000d00200007d
:10033800d0020000d0020000d0020000d00200006d
:10034800d0020000d0020000d0020000d00200005d
:10035800d0020000d0020000d0020000d00200004d
:10036800d0020000d0020000d0020000d00200003d
:10037800d0020000d0020000d0020000d00200002d
:10038800d0020000d0020000d0020000d00200001d
:10039800d0020000d0020000d0020000d00200000d
:1003a800d0020000d0020000d0020000d0020000fd
:1003b800d0020000d0020000d0020000d0020000ed
:1003c800d0020000d0020000d0020000d0020000dd
:1003d800d0020000d0020000d0020000d0020000cd
:1003e800d0020000d0020000d0020000d0020000bd
:0803f800d0020000d002000059
:020000040000fa
:100400000f9620000e7f24000e01880000000000df
:1004100000012000200288000c00070080822100db
:100420000100200011000700000020000000e00093
:10043000020032000000020000000000a4150200cb
:10044000000000000040da000000fe004440a90067
:10045000c00d20000000e00003003200000020007a
:10046000a00188004440a800000006009101880017
:10047000800078000000eb0015003700e2804000ab
:1004800032a0b4009101ba00e280400032a0b40072
:100490009102ba00e280400032a0b4000002eb00fa
:1004a000472bde00f507b200602ce10004003a00a3
:1004b0000059eb008301e900fdff3e000400370016
:1004c0006128e100010032000082eb000400070017
:1004d0001101ba000200e000e8ff3a000000060047
:1004e0003159ba008301e9000c0032002159ba00e9
:1004f0008301e900080032000400e00003003a0034
:10050000e280400032a0b400f5ff370011d9ba00f4
:100510008301e900faff3a008100e800e180400031
:1005200032a0b400000006000000fa008020a900fc
:10053000ffff37000000fa008060a900ffff3700ce
:100540000000fa008040a900ffff37000000fa0019
:100550008080a900ffff37000000fa0080a0a900fa
:10056000ffff37000000fa008020a900ffff3700de
:100570000000fa008060a900ffff37000000fa00c9
:100580008040a900ffff37000000fa008080a9002a
:10059000ffff37000000fa0080a0a900ffff37002e
:1005a0000000fa00ffff370003f0a200889fbe00a2
:1005b0008a9fbe008c1f78000f01070016013300d0
:1005c0006450e1004f0032006420e100520032002c
:1005d00003826c0007003b000905d0000306d00031
:1005e000820f54000c065d00020039000200320048
:1005f00089017800030678008582550004003d00db
:100600000003fd008103fd008502ea008b854200a6
:10061000840f720002003b0060001000e0801800b0
:100620006011b8000005eb007a28e1000a003900eb
:1006300006007800c75ddd00f707b200878075000f
:100640002d003700828171000a0178006105600089
:100650008180d1000080d3008502e900f9ff3b00d2
:10066000060440008784480002003b006004140038
:10067000e0841c000988a300070032008a81710011
:1006800082817100610164008904d1000884d30073
:100690008b05e800170037000978a30013003a0023
:1006a0000b00e000130034008b05e900080444004f
:1006b00089844c000a4474000978a3000d003a00b4
:1006c0000b00e000070034008b05e900080444003b
:1006d00089844c0001003a000b0020000978a30037
:1006e000f7ff32000001eb00020037008281710049
:1006f0000a017800850007000cf0a70001f0a000b7
:10070000ce0037006420e10002003a00838f6c00c5
:10071000ce0033000801be000200be00c700370053
:10072000889fbe008a9fbe008c1f7800b200070021
:10073000b900330003866c006450e1002e003200e3
:100740006420e100330032006150e1002f003200ec
:100750006120e1003100320085855500eb07b000d3
:1007600009002000080420000500370008044400a8
:1007700089844c000a0031000603430087834b0044
:100780000001530081815b00f8ff33000203be00cb
:100790000800a0000804440089844c00f6ff3900da
:1007a000c639dd0083017300010032001300200010
:1007b0008904d1000884d3000998a3000500320001
:1007c0000800a7000300a0008904d1000884d3001a
:1007d0008b05e8008904d1000884d3000001eb00f8
:1007e0000281d2004900070001f0a1000cf0a7002f
:1007f00001f0a000910037006420e1009300320076
:100800000801be000200be00f7ff37006120e100d2
:100810008e0032006000b800f3ff370000002000b7
:1008200001f82700f0ff3700839f68000100e00017
:1008300002003d0060001000e08018000300e000ae
:1008400002003d0060011100e0811900b6000700c0
:100850004f00e00002003b0060001000e080180044
:100860000000060014002000bf003700f4ff2f0036
:10087000bd0037000001be004a0007000470a70059
:1008800003f0a1006509b100160032000d0035002b
:100890006828e10006003500f0ff2f00f1ff270077
:1008a0000300e00013003b000100280000000500e9
:1008b00000004000818048008502e900fcff3a000a
:1008c00008003700f88f420002003c008000eb0077
:1008d000000005008100d1000080d3008502e800ff
:1008e000fcff3a000300e00002003b006000100043
:1008f000e0801800000006004f89de0082017800c9
:10090000b40037006011b800c20037008100200039
:10091000618055000b003d000b00200061fe2f00a0
:100920000100e1001d00340082817100610164005a
:100930008904d1000884d3000000e800faff3a00df
:10094000710020006100640003007000020060007c
:100950000900320061044400e0844c000988a500cd
:10096000050032008b05e8006808e10002003a004b
:100970008904d1000884d300f20f20000258e1005e
:1009800005003d00c75ddd00f907b20089807500f4
:1009900008007800000006000bf827008b007800a4
:1009a00000000500c70ade00f107b200f50fb20033
:1009b00008003200e1cf4200020032000170a000c6
:1009c00024000500810f70000100320004080500ba
:1009d00044000500810f700002003a001400050079
:1009e0008502e9000000400081c04800fcff3b0098
:1009f0000170a000240005000004be00e9ff07000c
:100a00000003be000405be000200be00e5ff0700b3
:100a1000844f7500000006000200be006450e10033
:100a2000050036006420e100020036000968a300da
:100a300001003a000800be000160a0004f067800e7
:100a40004f05be004f04be0000000600f0ff2f005f
:100a5000f1ff2700f9ff3700889fbe008a9fbe0084
:100a60008c1f7800e4ff0700ebff330003866c0067
:100a70006450e100240032006420e10027003200cd
:100a80006150e100220032006120e10021003200cb
:100a90008b854200eb07b1000134b800003ab80082
:100aa0000804420089844a00013ab8000030b800c6
:100ab0008880400009014a00040033000000400023
:100ac00081804800020149008b05e900c909dd0069
:100ad000830170000100320013002000c814de0002
:100ae0004814dd004709de001200b200c808de002d
:100af0000884700085ff070001f0a1000cf0a7003a
:100b000001f0a000cdff37006120e100cfff3200ef
:100b10000801be000200be00f7ff37006150e1008f
:100b2000fcff3a00c9ff37006022b800060220002f
:100b30000000d0008180d2000482d2008582d200e1
:100b40000000a0000202520083825a00030031001c
:100b50000202420083824a000000a1000603e9006d
:100b6000f3ff3a0000000600889fbe008a9fbe0087
:100b7000841f7800a0ff07004f00780011003300a9
:100b8000f0ff2f00838f6c0006003b00040565001a
:100b90000a00a7000800370009f0a6001000200096
:100ba00008003700820f5400838f5c000300390077
:100bb0001000200001003e000000200009f0a70006
:100bc0000000ea004f05be004f04be000000e00038
:100bd00000000600881f7800030478000300e0008e
:100be00007003d0060001000e0801800600119005f
:100bf000e081190002003b0001f02d0003003700e6
:100c00000400070008f0a70001f0a0004f047800de
:100c100000000600889fbe008a9fbe000082700010
:100c20000402710004827100260032000004be003c
:100c30000200be006011b8006b0920009502200080
:100c40000182cf000a0039000541b1000082cf00c7
:100c5000070039000541b1000982cf0004003900c6
:100c60000541b1000882cf00010039000541b10003
:100c700005425200120032000a003b0082817100de
:100c8000610164008100d1000080d3008984d30019
:100c90000884d3008b05e8000442e800f7ff3a001f
:100ca000070037000804440089844c000000480015
:100cb000818048008b05e9000442e900f9ff3a0011
:100cc00012ff07004f05be004f04be0000000600e3
:100cd0000000fa0068815700cfb89700e093200029
:100ce000020007000080fa00000006002f03b00099
:100cf000889fbe008a9fbe008c9fbe008e1f78001a
:100d0000e0af9f00c1af9f00b2b79f008006eb002d
:100d10006e023700cfa897008100e800c1af9f00a6
:100d200054c2b300844f500006003a00010278001c
:100d30000006eb0001c3b30000c2b300b7c2b300aa
:100d4000070037000000fb00efa897006b020700c8
:100d5000e10f40005d0232008d06e8005b023700c3
:100d60008402780034437800d2c2b300824f53002b
:100d70000900320005003c00804f5300080032009b
:100d8000874f53000c003a0007003700814f530093
:100d900009003a00060037000c30a000f0ff3700d1
:100da0000c00a000eeff37000c10a000ecff370095
:100db0000c20a000eaff370062026600010032004a
:100dc0000c00a10068026600010032000c20a100a6
:100dd0000602fb000403b100e90f52000c003e00c4
:100de000050378000002eb006a22b900b603fb009d
:100df0000703b10004824300860278009603fb00db
:100e00000703b100e98f5300f7ff360008003700f1
:100e10000002eb00a7c2b300874f530004003a0062
:100e2000bfb1970043027800b3b79f008502e80086
:100e30000007eb00e6c2b300954f13000a003a002a
:100e40000ce0a00064435300d54f130002003200b1
:100e500005037800080037003fb397004607780085
:100e6000b6b79f008502e800050378000800370048
:100e70006a70b9000087430086027800b603fb0061
:100e80000703b100e98f5300f9ff3600f6ff370082
:100e9000b6427800c6af9f00c0c6b30080cf5200f4
:100ea000250032000f003c0036c6b30086cf52004a
:100eb0006e00320004003c00e0cf52000802320015
:100ec0006b4353000f00370046c6b30086cf520075
:100ed000170032006543430086cf520083003a007a
:100ee0001300370036c7b30086cf52001f00320010
:100ef00007003c006443530086cf520014003200c8
:100f00000643e80086cf520078003a00130037000d
:100f100056c7b30086cf52007900320063434300c6
:100f200086cf520071003a00a5c79f000d00370020
:100f3000a5c79f0074003700f0036600050120007c
:100f4000010032000500280005067600d0ff3700ba
:100f5000a5c79f000c60a0006b003700a5c79f00cd
:100f60000c50a0000c70a00067003700a5c79f00c0
:100f7000bfb09700c1027800b1b79f0005047800a8
:100f8000e08f520001003a00a89220000803780088
:100f90008002eb00010037008502e800e6c37a001a
:100fa000e0cf5300fcff3a0085047800e00f5700c3
:100fb00003003200890f5700010031008e047800d1
:100fc0000007eb00890f52000100360009075200ac
:100fd0006806660014003a0007003700efa8970083
:100fe00000022000c5010700e10f400001003200af
:100ff0008d06e8000e07e900e00f5700f7ff3a0002
:101000000087eb0008003700080278003400fb007e
:1010100004047800efa89700b8010700e10f400032
:10102000010032008d06e800090278008404e9001e
:10103000e00f5200f4ff3a00e00f5600a301320027
:1010400007003700efa8970000022000ab0107005f
:10105000e10f4000010032008d06e8000e07e900b4
:10106000e00f5700f7ff3a00980137003fb19700b3
:10107000c2027800b2b79f0005007800cf80de0082
:101080000101780082017800f0af9f0081b79f00d6
:1010900092b79f00a3b79f004800de00c80add009a
:1010a00000807200a0c79f00700366000900320034
:1010b000e04f500007003200e14f400005003200d1
:1010c000b0c79f006fdb9700c6c79f0029002000b4
:1010d00003003700efdb9700b7c79f00190020001f
:1010e00038fc2f000f044400b0ff3700a5c79f0055
:1010f00028fc2f000f04440019002000abff37002c
:10110000a5c79f000c0cb3008c027800050cb20040
:101110002b003a00e00f560005003d003fb097005d
:101120004005be004004be00b0b79f001700370066
:10113000f00266000f003200bfb297004501be000a
:10114000b5b79f00c2a79f00d3a79f0005037800f3
:1011500096029000cfaade00e5a79f00f5a79f00aa
:101160004fa49700dfa497006fa59700ffa59700f5
:10117000060037003fb0970040047800b0b79f00ea
:10118000cfc4de00090578008a057800e00f54001e
:10119000e08f5c00e00f5d00e08f5d0025003d000a
:1011a0003c00b3006000b8006011b80008045000b3
:1011b000898458000a0559008b8559001d003700a5
:1011c000e00f560005003d00bfb097004105be008e
:1011d0004104be00b1b79f0016003700f002660060
:1011e0000e003200bfb297004501be00b5b79f00a8
:1011f00082af9f0093af9f000003eb00a6af9f005c
:101200008003eb00b7af9f000fac97009fac970037
:101210002fad9700bfad9700060037003fb0970095
:1012200040047800b0b79f00090020000a002000a9
:101230000b002000e00f570007003a001e002000be
:10124000e00f5400e08f5c00e00f5d00e08f5d0078
:10125000010032000007eb008c007800010cb200a6
:10126000f1af9f0005042000858f50002c00320054
:1012700003003c00e08f5000080032003c003700c3
:10128000050820007fa99700850f5100100032004b
:10129000050c2000850f510035003a00068720001c
:1012a00015c0b3003600be003601be000040e100ac
:1012b00001c8e10002d0e10003d8e1002b003900b1
:1012c0008542e800f4cf5200f6ff3a0027003700cd
:1012d00015c0b30000012000010020006011b8001b
:1012e0000040e10001c8e10002d0e10003d8e100c4
:1012f0001e003900460020000000d0008180d2008e
:101300000281d2008381d2000603e900faff3a008d
:101310008542e800f0cf5200f1ff3a001300370099
:1013200015c0b30080002000010020006011b8004b
:101330000040e10001c8e10002d0e10003d8e10073
:101340000a003900370020000000d0008180d20060
:101350000281d2008381d2008703e900faff3a00bc
:101360008542e800f5cf5200f1ff3a00a5c79f0083
:101370002fc097008002fb008e8f520002003d00bc
:10138000aec79f0003003700850f570001003d00e6
:1013900005077800e00f520003003200e302660008
:1013a000010032000402e900050024008502660005
:1013b000050032008e0f5200020034000e0252006f
:1013c000010037000002eb002fc197008202fb00f2
:1013d0008001eb00d3af9f00850f52000200340064
:1013e00085025200d5af9f00640266002c003200d7
:1013f000e202660061026600e08f520006003200e1
:10140000b0022000e00f5200010032000080e8002e
:10141000efa8970004003700e00f520006003200ea
:10142000efa8970000022000b4000700e10f400081
:10143000010032008d06e8005faa9700e00f52001d
:101440008d0032000802be000a03be00dfac970028
:10145000efa8970000032000c4b79f00d5b79f00f6
:10146000e6b79f00f7b79f00a40007004fb29700b0
:10147000dfb297006fb39700ffb39700e10f400012
:10148000010032008d06e8008904e900f0ff3a000f
:10149000d9af9f000605be000404be0076003700e9
:1014a000dfaa9700e08f5200180032006802660041
:1014b00016003a000802be000a03be00dfac970027
:1014c000efa8970000022000c4b79f00d5b79f0087
:1014d000e6b79f00f7b79f00880007004fb297005c
:1014e000dfb297006fb39700ffb39700e10f4000a2
:1014f000010032008d06e8008904e900f0ff3a009f
:10150000d9af9f000605be000404be00e2026600db
:1015100061026600e08f520006003200b002200037
:10152000e00f5200010032000080e800efa89700b1
:1015300004003700e00f52004f003200efa8970080
:10154000000220006d000700e10f40004a00320059
:101550008d06e800480037000e07e9007fab9700d2
:1015600007042000870f53002d00320003003c00c9
:10157000e00f530008003200370037000408200055
:101580007fae9700840f560012003200040c20003a
:10159000840f560030003a004372dd008086200040
:1015a000000242005403be004402be000800be0018
:1015b0000a01be00b4010700a400200005002000bd
:1015c0006033b800b701070004c3b3000442400011
:1015d0002000370094912000bfa29700e08f5200b6
:1015e0000100320084902000c272dd000800be00bd
:1015f0000a01be008502e900050033008301d10025
:101600000281d3008180d3000080d300f9ff37002e
:101610006f00600064407800a0c79f000e00370094
:101620006372b9000800be000a01be00040678001b
:101630000c06e900050033008301d1000281d300cc
:101640008180d3000080d300f9ff3700674260003b
:101650000443b000a4c79f00afc097000100fb0087
:10166000efa8970025000700e10f400006003200b8
:101670008d06e800040037000c0178000202b20079
:10168000b2a79f008cbf9f00e00f5700b2ff3a0047
:101690000fbe9700680666000c003200dfa99700b5
:1016a000e08f51000900340003067800efa897008e
:1016b0000002200011000700e10f4000010032008d
:1016c0008d06e8000c06e900f8ff3a004faa9700e3
:1016d00014407800a0c79f00e04f50008dfd3a00f5
:1016e0000d0078004f0778004f06be004f05be0082
:1016f0004f04be002f03b10000000600889fbe000b
:101700000104780038029000e20262008084eb005d
:101710003b003200040378000620b20098029000db
:1017200002003a00e08f520035003a000490a00019
:101730003404980080047800f90fb200e08f520062
:1017400002003a00a8029000050c7800ea8f5400cd
:1017500005003a000408b20003003a00880078004f
:10176000d0002000e5ff070018029000d80290008a
:10177000850f52000b0032000402e80014049800a8
:1017800018027800094a7800040ce80015c0b3007c
:1017900084952000054a7800ea8f540018003a002a
:1017a000050037008800780009407800170007001e
:1017b0008004780012003700380290000410b20054
:1017c0000f00320018019000a8009000480090001f
:1017d0005200070018029000840f500004003200ed
:1017e000380290000403b300340498008084eb00b6
:1017f0000002eb001404980028029000040c78000a
:10180000090078004f04be00000006000200fa0044
:10181000889fbe00a0ff9f0001047800380290005e
:10182000840278000504b200020032000000fb00d0
:1018300035003700e202620005003a000403b300fd
:1018400034049800150498000080eb002e00370047
:10185000d8049000e08f540006003a0012002000e7
:10186000e6805700480090002c00070019049800fb
:1018700023003700a8029000e08f520008003a00d1
:10188000b595200025049800050c7800250020005f
:1018900055049800150498000430a0003404980002
:1018a00018019000a8009000480090001b0007005d
:1018b000280290008082eb0015049800affa970090
:1018c000054a7800040ce8002ffa9700ea4f52000e
:1018d0000b003a00380290000410b20008003200f9
:1018e00018019000a8009000480090000b0007002d
:1018f0000002eb0014049800a8029000050c780088
:101900002ffa97000400fb004f04be000080fa008d
:101910000000060000c0da00000006000a00fa001d
:10192000e20f500022003e00f44a8000e10f520016
:1019300006003200872320004623200024232000b5
:1019400005232000e08f530004003a008722200086
:10195000462220002422200005222000000028002a
:101960001500600003003a00800b78000700280093
:10197000958a7300054020009482620001003a00bd
:1019800014a0a000820278000600370094037800bb
:101990000710b200fdff3200b103fb00070b780017
:1019a0008502e900e08f5200f8ff3a000800370096
:1019b00034002000b4bf9f00c0bf9f00d1bf9f0074
:1019c000e2bf9f006a805700d2ff07006fb99700ff
:1019d000020078000080fa0000000600889fbe0028
:1019e0008a9fbe003004be002005be0004044400ef
:1019f00085844c0006054d0087854d000898be0083
:101a00000a90be000440e10005c8e10006d0e100f4
:101a100007d8e10002003100680040001008e8002b
:101a20004f05be004f04be00000006001000fa0083
:101a3000889fbe008a9fbe000605be000404be004b
:101a40003002be002003be00c4b79f00d5b79f0080
:101a5000e6b79f00f7b79f000802520089825a003c
:101a60000a035b008b835b0084bf9f0095bf9f00d0
:101a7000a6bf9f00b7bf9f000498be000698be0097
:101a8000110020004fb29700dfb297006fb39700ac
:101a9000ffb397000820e10009a8e1000ab0e100c7
:101aa0000bb8e100010039008000eb001088100045
:101ab0004f05be004f04be000080fa000000060083
:101ac0001400fa00889fbe008a9fbe008c9fbe0053
:101ad0003f0007000605be000404be000006eb0040
:101ae000ccb79f00bcb79f00acb79f009cb79f00ce
:101af0008cb79f000d0420004fb39700bfb2970032
:101b0000860343002fb29700e00f530004003d000e
:101b10003d0007000f004000b0ff07000300370042
:101b2000390007000f004000c0ff0700cfb2970048
:101b300095bf9f00e08f5200090035002b00070081
:101b400014002000050020006033b800000072007f
:101b50008180720002017300838173001c00070002
:101b60000c06e8008d0f5600e3ff3a001fba9700fd
:101b7000e00f520005003d000802be000a03be004f
:101b800000fe2f000f00400094ff07004faa9700af
:101b9000e00f520008003a000fb497009fb497007e
:101ba0002fb59700bfb59700d8b79f00e9b79f0042
:101bb000fab79f008bbf9f000c0007004f06be00c6
:101bc0004f05be004f04be000080fa000000060072
:101bd000010007000000060090b79f00a1b79f001a
:101be000b2b79f00c3b79f000000060001000700c6
:101bf000000006001fb09700afb097003fb19700fc
:101c0000cfb19700000006004f2bde008703730062
:101c1000a7b79f004f23de00858242008502730034
:101c200095b79f00ffaa97004f2bde0004024200e9
:101c30000402730084b79f006faa97004f23de0051
:101c40008582420085027300f5af9f00e9ff07001f
:101c50004f18de000402420000027200e4af9f0051
:101c6000e4ff0700000040008180480002014900b5
:101c700083814900d8ff07000802be000a03be00a6
:101c800000fe2f0000000600881f780018002000ca
:101c9000881f78008aff07008f87e9004f047800cb
:101ca00000000600801feb0085ff07008f87e9001a
:101cb00000000600889fbe008a9fbe00e00f500013
:101cc000e08f5800e00f5900e08f59000c003d00f4
:101cd0006044b8006055b8000000540081805c008a
:101ce00002015d0083815d001800200015000700df
:101cf00008003d00180007000004eb000500370055
:101d00000004eb000f00070002003d001200070076
:101d100018002000dcff0700e00f5400060032002e
:101d20006022b8006033b8000000520081805a0081
:101d300002015b0083815b004f05be004f04be00c3
:101d400000000600e00f5200e08f5a00e00f5b0039
:101d5000e08f5b00000006006044b8006055b800ea
:101d60000402540085825c0006035d0087835d00e9
:101d700000000600889fbe008a9fbe008c1f78006e
:101d8000e00f5000e08f5800e00f5900e08f59003d
:101d90000d003d006044b8006055b80000005400dc
:101da00081805c0002015d0083815d001c002000d9
:101db0000820e10009a8e1000ab0e1000bb8e10049
:101dc0000d003d00080037000006eb00e00f520058
:101dd000e08f5a00e00f5b00e08f5b0006003d00e3
:101de0006044b8006055b8000402540085825c006d
:101df00006035d0087835d00aaff0700e00f560021
:101e0000060032006022b8006033b80000005200c3
:101e100081805a0002015b0083815b004f067800dd
:0c1e20004f05be004f04be00000006008d
:020000040000fa
:101e2c00504f0000534300004e540000203d000072
:101e3c0020250000640a000000530000636f0000be
:101e4c00726200006f740000204200006173000099
:101e5c006520000061740000206800006f6d0000b8
:101e6c0065200000706f0000736900007469000049
:101e7c006f6e00002c200000504f000053430000f8
:101e8c004e540000207300006574000020740000a4
:101e9c006f3a000020250000640a000000310000a9
:101eac0020640000697200002c20000062610000b8
:101ebc007365000053740000657000002c20000056
:101ecc00504f0000534300004e5400002c200000e3
:101edc0065720000726f0000722c00002070000010
:101eec006964000054650000726d0000202500003c
:101efc006420000025640000202500006420000000
:101f0c00256400000d0a0000002d000031200000a7
:101f1c0064690000722c00002062000061730000f4
:101f2c006553000074650000702c00002050000008
:101f3c004f530000434e0000542c0000206500005d
:101f4c00727200006f7200002c200000706900009b
:101f5c0064540000657200006d20000025640000d0
:101f6c0020250000642000002564000020250000ce
:101f7c00640d00000a000000536300006f72000043
:101f8c00626f000074200000626100007365000045
:101f9c002061000074200000726500007175000063
:101fac006573000074650000642000004465000047
:101fbc006772000065650000202d000020450000c0
:101fcc00727200006f720000202500006420000077
:081fdc00256400000a0000006a
:020000040000fa
:101fe4000000fa00c982a900153a8000f40b200011
:101ff4000483620064042000750520002774200017
:10200400844b7800854b7800864b780065368000d9
:1020140004fe2f00048262002401b30064368800a9
:10202400153a800004042000048372006404200034
:102034007505200027742000844b7800854b7800b8
:10204400864b78000080fa00000006000000fa00c9
:102054000002eb00240c88008461a9000002eb005c
:10206400140c88000002eb00040c8800240c80008f
:102074000400a1000410a0000420a000240c880087
:102084000080fa00000006000000fa000002eb00e5
:10209400240c88008461a8000002eb00140c880062
:1020a4000002eb00040c8800240c80000400a00053
:1020b4000410a1000420a000240c88000080fa0071
:1020c400000006000200fa00000f7800240c8000d3
:1020d40067026200e60f520017003a00440620002f
:1020e4009e027800848f52000300340044062000ce
:1020f400040f7800050037001e027800e00f52003c
:1021040002003d000002eb00040f78006508800027
:102114001e02780004aab900840278004406200054
:10212400110009008482d80000027800040c8800a1
:102134000080fa0000000600ffff37000400fa00e8
:10214400889fbe00008fbe00240c800067026200de
:10215400e50f520034003a0018c0b300020020001a
:10216400030224001e00be00bff90700000278002d
:10217400e00f520001003c000044eb00e04f54002b
:10218400040032000400200005022400048fbe0075
:102194000e00370018c0b3000200200003f0230033
:1021a4001e00be00aef9070000027800e00f5200e6
:1021b400010035000044eb00e04f540003003200fe
:1021c4000400200005f02300048fbe00020020005c
:1021d400031a24001e00be0050f907000002be00ce
:1021e4000404be0074088000050020000400be0042
:1021f400c3f907000002be000401be000800be00cf
:1022040014fa07000002be000400be0098f907009b
:102214000002be0004027800040c88004f04be00d3
:102224000080fa0000000600ffff37000000fa00fb
:10223400c9a2a900153a8000f40b200004836200af
:10224400640420007505200027742000844b780066
:10225400854b7800864b780065368000f40f2e009d
:102264008482620004302100048272006436880093
:10227400153a8000040420000483720064042000e2
:102284007505200027742000844b7800854b780066
:10229400864b78000080fa00000006000000fa0077
:1022a4000002eb00540c88008a61a9000002eb00d4
:1022b400440c88000002eb00340c8800540c8000ad
:1022c4000400a1000410a0000420a000540c880005
:1022d4000080fa00000006000000fa000002eb0093
:1022e400540c88008a61a8000002eb00440c8800aa
:1022f4000002eb00340c8800540c80000400a000a1
:102304000410a1000420a000540c88000080fa00ee
:10231400000006000200fa00000f7800540c800050
:1023240067026200e60f520017003a0044062000dc
:102334009e027800848f520003003400440620007b
:10234400040f7800050037001e027800e00f5200e9
:1023540002003d000002eb00040f780065088000d5
:102364001e02780004aab900840278004406200002
:10237400110009008482d80000027800340c88001f
:102384000080fa0000000600ffff37000400fa0096
:10239400889fbe00008fbe00540c8000670262005c
:1023a400e50f520034003a0018c0b30002002000c8
:1023b400030224001e00be002bf90700000278006f
:1023c400e00f520001003c000044eb00e04f5400d9
:1023d400040032000400200005022400048fbe0023
:1023e4000e00370018c0b3000200200003f02300e1
:1023f4001e00be001af9070000027800e00f520028
:10240400010035000044eb00e04f540003003200ab
:102414000400200005f02300048fbe000200200009
:10242400031a24001e00be00bcf807000002be0010
:102434000404be0074088000050020000400be00ef
:102444002ff907000002be000401be000800be0010
:1024540080f907000002be000400be0004f9070072
:102464000002be0004027800340c88004f04be0051
:102474000080fa0000000600ffff37000000fa00a9
:10248400c9c2a900153a8000f40b2000048362003d
:10249400640420007505200027742000844b780014
:1024a400854b7800864b78007536800004fe2f003b
:1024b400048262004401b30074368800153a800037
:1024c40004042000048372006404200075052000c5
:1024d40027742000844b7800854b7800864b780065
:1024e4000080fa00000006000000fa000002eb0081
:1024f400840c88009061a9000002eb00740c880031
:102504000002eb00640c8800840c80000400a1002d
:102514000410a0000420a000840c88000080fa00ad
:10252400000006000000fa000002eb00840c8800a2
:102534009061a8000002eb00740c88000002eb001c
:10254400640c8800840c80000400a0000410a10026
:102554000420a000840c88000080fa00000006001b
:102564000200fa00000f7800840c80006702620009
:10257400e60f520017003a00440620009e0278003d
:10258400848f52000300340044062000040f7800b6
:10259400050037001e027800e00f520002003d00e3
:1025a4000002eb00040f7800650880001e0278002a
:1025b40004aab9008402780044062000110009002e
:1025c4008482d80000027800640c88000080fa003d
:1025d40000000600ffff37000400fa00889fbe00d9
:1025e400008fbe00840c800067026200e50f520079
:1025f40034003a0018c0b300020020000302240093
:102604001e00be0098f8070000027800e00f520098
:1026140001003c000044eb00e04f54000400320091
:102624000400200005022400048fbe000e003700c1
:1026340018c0b3000200200003f023001e00be00f7
:1026440087f8070000027800e00f5200010035000f
:102654000044eb00e04f540003003200040020006b
:1026640005f02300048fbe0002002000031a24009a
:102674001e00be0029f807000002be000404be00cc
:1026840074088000050020000400be009cf80700c8
:102694000002be000401be000800be00edf8070001
:1026a4000002be000400be0071f807000002be0074
:1026b40004027800640c88004f04be000080fa0015
:1026c40000000600ffff37000000fa00c9e2a9007d
:1026d400153a8000f40b2000048362006404200097
:1026e4007505200027742000844b7800854b780002
:1026f400864b780075368000f40f2e0084826200c9
:10270400045021000482720074368800153a800057
:102714000404200004837200640420007505200072
:1027240027742000844b7800854b7800864b780012
:102734000080fa00000006000000fa000002eb002e
:10274400b40c88009661a9000002eb00a40c880078
:102754000002eb00940c8800b40c80000400a1007b
:102764000410a0000420a000b40c88000080fa002b
:10277400000006000000fa000002eb00b40c880020
:102784009661a8000002eb00a40c88000002eb0094
:10279400940c8800b40c80000400a0000410a10074
:1027a4000420a000b40c88000080fa000000060099
:1027b4000200fa00000f7800b40c80006702620087
:1027c400e60f520017003a00440620009e027800eb
:1027d400848f52000300340044062000040f780064
:1027e400050037001e027800e00f520002003d0091
:1027f4000002eb00040f7800650880001e027800d8
:1028040004aab900840278004406200011000900db
:102814008482d80000027800940c88000080fa00ba
:1028240000000600ffff37000400fa00889fbe0086
:10283400008fbe00b40c800067026200e50f5200f6
:1028440034003a0018c0b300020020000302240040
:102854001e00be0004f8070000027800e00f5200da
:1028640001003c000044eb00e04f5400040032003f
:102874000400200005022400048fbe000e0037006f
:1028840018c0b3000200200003f023001e00be00a5
:10289400f3f7070000027800e00f52000100350052
:1028a4000044eb00e04f5400030032000400200019
:1028b40005f02300048fbe0002002000031a240048
:1028c4001e00be0095f707000002be000404be000f
:1028d40074088000050020000400be0008f807000a
:1028e4000002be000401be000800be0059f8070043
:1028f4000002be000400be00ddf707000002be00b7
:1029040004027800940c88004f04be000080fa0092
:1029140000000600ffff37000000fa00889fbe0099
:102924000443800084027800240f80000482520053
:10293400e4408800e4408000cfa2de000400be0032
:10294400ecf707000003be00c4408000d5408000bf
:102954000401be000600be0012f707000002be001c
:102964000400be00c2f707000002be0004027800a3
:10297400f4408800e44080006123b90004418000f1
:10298400154180000602420087824a000441880003
:1029940015418800e4408000cfa2de000400be00a0
:1029a400d4f707000003be00644080007540800037
:1029b4000401be000600be0026f807000002be00a7
:1029c4000404be0004418000154180000400be00e0
:1029d400c8f707000003be008440800095408000d3
:1029e4000401be000600be001af807000002be0083
:1029f4000401be000800be00ebf607000002be00a2
:102a04000404be00f4408000cfa2de000400be0037
:102a1400b8f707000003be00a4408000b540800062
:102a24000401be000600be000af807000002be0052
:102a34000401be000800be00dbf607000002be0071
:102a440024418800354188002441800035418000bc
:102a540018c0b3006011b8000400be0082f707007c
:102a640000027800e00f520001003c000044eb003b
:102a7400e04f54000400320014c0b3000440780056
:102a84002ce8b7000300370000c2eb0004407800d4
:102a94002ce8b700244180003541800018c0b30001
:102aa4006011b8000400be006df707000002780052
:102ab400e00f5200010035000044eb00e04f5400e9
:102ac40005003200244180003541800005f0a20059
:102ad400244188003541880024418000354180002c
:102ae40018c0b30002002000832c24000400be00a0
:102af4005df7070000027800e00f520001003c007f
:102b04000044eb00e04f54000400320004002000b5
:102b1400852c24002441880035418800e44080004d
:102b2400cfa2de000400be0072f707000002be0060
:102b3400c4408800d54088004f04be000080fa00dd
:102b4400000006000200fa005302070056020700c4
:102b5400b7020700780207008b020700b0030700e2
:102b6400bd03070009040700160407001d0407003d
:102b74002a040700c1020700ce020700340307003d
:102b840055030700441180000402e8004422dd00dc
:102b9400050020000401be0080a82300810320005a
:102ba40020f707000002be00040f7800b3010700fd
:102bb400b90107000afd070024fd0700c902a800a7
:102bc400c922a800153a8000f40b20000483620097
:102bd400640420007505200027742000844b7800cd
:102be400854b7800864b7800e534800004fe2f0086
:102bf400048262000430a000e4348800e5348000dc
:102c0400f40f2e008482620004902000048272007b
:102c1400e4348800153a8000040420000483620030
:102c2400640420007505200027742000844b78007c
:102c3400854b7800864b7800040f80000480a00048
:102c44000490a00004a0a000040f8800e2e1a80002
:102c5400140f80000440a0000450a0000460a000f1
:102c6400140f8800540307000002780014438800fe
:102c74000d003700000000000b00370000000000ca
:102c840009003700000000000700370000000000c2
:102c940005003700000000000300370000000000ba
:102ca4000100370000000000248020001442780056
:102cb400e04f520047003a00141680007002620090
:102cc400e00f5200260032002480200014427800d5
:102cd400e04f520022003a000480200014427800a1
:102ce4000402fb0004007800f6fc07000042eb003d
:102cf4000440780001e8b700890207000042780028
:102d0400e14f520014003a00240f8000841f780021
:102d140064f12800841f7800ecf70700e48757006b
:102d2400058020009542780034c6b30084cf520059
:102d340008003c000480200014427800844278009b
:102d4400348020001442780004c242000440780019
:102d540000e8b7008502070000000000d2ff37003a
:102d64001416800070026200e00f5200c1ff3a00a6
:102d74002480200014427800e04f5200bfff3a0044
:102d8400ed0107000402070014c0b30004407800fa
:102d940002e8b70044408000240f8800280207009e
:102da400240f8000841f780034f22800841f7800e8
:102db400c6f70700e4875700003e290041002000c1
:102dc4009e0307000042eb000440780000e8b700cf
:102dd400b5ff37002480200014427800e14f5200f0
:102de400a8ff3a00ef0207000002780004427800ce
:102df4000440780064e8b700448620001442780058
:102e0400e04f52000e003400154380004486200039
:102e1400144278000402fb000402e9000482420028
:102e2400144278000440780005e8b700d80207008f
:102e34000302070014c0b3000440780006e8b7009a
:102e440054802000144278008482fb0044802000d7
:102e5400144278000402fb0004aab900840278003a
:102e640044408000048242000443880004438000fc
:102e7400e00f520004003a00f1010700003e29006f
:102e8400410020006d0307000443800084027800a1
:102e9400240f8000848f52007cff32006480200065
:102ea40014427800e14f52007aff3a009afe07007c
:102eb40024418000354180000400be006cf6070008
:102ec4000002be00044278000440780000e8b70025
:102ed400a4802000144278008402fb00e4408000b7
:102ee400848f520007003500a4802000144278002b
:102ef4000402fb008402ea00e4408000848f520054
:102f040035003400c482200014427800e14f52009e
:102f140016003a00840107009f0107000480200086
:102f2400144278000402fb000400780065fc0700ea
:102f340004802000144278008403fb00e6408000f3
:102f4400250f800004438000871f7800861f7800c7
:102f5400851f7800841f780054f52800841f7800aa
:102f64005af70700ea87570019003700c482200087
:102f740014427800e14f420015003a006e01070048
:102f84008101070004802000144278000402fb0041
:102f9400040078004bfc07000480200014427800f1
:102fa4008403fb00e6408000250f8000044380007a
:102fb400871f7800861f7800851f7800841f78009b
:102fc400b4f82800841f780040f70700ea87570008
:102fd4000000000034ff3700a48020001442780071
:102fe4008402fb00e4408000848f52002bff3400f5
:102ff400a4802000144278000402fb008402ea004a
:10300400e4408000848f520026ff3d004601070003
:103014005d010700e54080005480200014427800e0
:103024000482fb00851f7800841f780024fc28009c
:10303400841f780025f70700e68757000042eb005d
:0c3044000440780006e8b70017ff3700d2
:020000040000fa
:103050004e08000006000000020000000000000012
:1030600000000000660800000200000002000000ee
:10307000000000002e0800002000000000000000fa
:1030800054080000060000000200000000000000dc
:10309000000000005a0800000600000000000000c8
:1030a000000800002e0000000200000032010000b5
:1030b0000224000000001000270a00000000400069
:1030c00040000000000000000000000000000000c0
:1030d00000000000000000000000000000000000f0
:1030e0000000000000000000000000006008000078
:1030f0000600000000000000580900000600000063
:10310000000000003209000026000000020000005c
:1031100059090000005909000900000000020000e0
:103120005b090000005b09000e02010000000000c6
:103130000000000000000000060202000000000085
:1031400032090000080900002a0000000200000007
:1031500030313200333435003637380039414200df
:1031600043444500460030003132330034353600e8
:1031700037383900616263006465660000286e00bc
:10318000756c6c002900000068080000a0000000b9
:1031900002000000010000000000000000000a0022
:1031a00000000000000000000064000000000000bb
:1031b00000000000e8030000000000000000100014
:1031c000270000000000000000a0860001000000b1
:1031d0000000000040420f000000000000008000de
:1031e00096980000000000000000e100f5050000d6
:1031f0000000000000ca9a003b0000000000000030
:10320000e40b5400020000000000e80076481700bc
:10321000000000000010a500d4e80000000000003d
:10322000a0724e0018090000000040007a10f30060
:103230005a0000000080c600a47e8d00030000003c
:1032400000c16f00f2862300000000008a5d780054
:103250004563010000006400a7b3b600e00d000064
:1032600000e889000423c7008a0000005e0900000e
:103270000200000002000000010000000000000049
:020000040000fa
:103280000000fa00c842a800c862a8002c83a90068
:103290002ca3a9000080fa00000006000000fa003c
:1032a000041980000480a1000490a1000419880082
:1032b000041980000450a1000460a1000470a10062
:1032c000041988002043a8002143a8002343a80034
:1032d000141980000480a1000490a1001419880032
:1032e00025e3a900f4c3b3000440780024e3b70049
:1032f000141980000420a0000430a1000440a100a3
:103300000450a100141988003083a80030a3a8003d
:1033100085a0a90095a0a80021e3a8000080fa00dc
:10332000000006000200fa00a5048000040022004c
:1033300004826200e00f52000500320095a0a9004f
:10334000d4428000040f780095a0a8000200370046
:10335000d4428000040f78001e0278000400780038
:103360000080fa00000006000200fa00a5048000b8
:103370000400220004826200e00f520005003200c7
:1033800095a0a900e4428000040f780095a0a80051
:1033900002003700e4428000040f78001e0278002b
:1033a000040078000080fa0000000600801f78000a
:1033b000849fbe00861f78000000fa00e48520008c
:1033c000144278000482fb00e00f52000300320038
:1033d000e10f52000a00320012003700f48520008d
:1033e000144278000482fb000518800004034200a8
:1033f000a485200004024300050a78000900370074
:10340000f4852000144278000482fb000518800037
:1034100004034200c485200004024300050a78002a
:1034200000000000e4852000144278000442e80017
:10343000044078005ee8b700e4852000144278007c
:10344000e24f520008003a000042eb0004407800ce
:103450005ee8b700f4852000144278000442e800da
:10346000044078005fe8b700f4852000144278003b
:10347000e14f520003003a000042eb0004407800a4
:103480005fe8b70085a0a9000080fa004f0378002c
:103490004f02be004f007800004006000000fa0016
:1034a00040a7a9000080fa00000006000000fa0012
:1034b000c002a9002c03a800c9a2a900c9c2a90082
:1034c000c082a8000080fa00000006000000fa0098
:1034d000cd02a8000080fa00000006000000fa00fb
:1034e000cd02a9000080fa00000006000000fa00ea
:1034f000641680004822de006142620004c2ea00d5
:10350000614262000482fb00610262004822dd0029
:1035100066168000f5ef2f008502630004827200ba
:10352000641688000080fa00000006000000fa001f
:10353000cdc2a8000080fa00000006000000fa00da
:10354000cdc2a9000080fa00000006000000fa00c9
:10355000641680004e22de006142620004c2ea006e
:10356000614262000482fb00610262004e22dd00c3
:1035700066168000f5ff2b0085026300048272004e
:10358000641688000080fa00000006000000fa00bf
:10359000cda2a8000080fa00000006000000fa009a
:1035a000cda2a9000080fa00000006000000fa0089
:1035b000641680004d22de006142620004c2ea000f
:1035c000614262000482fb00610262004d22dd0064
:1035d00066168000f5ff2d008502630004827200ec
:1035e000641688000080fa00000006000000fa005f
:1035f000141680004422de00614262000482fb0057
:10360000610262004422dd0016168000f5fe2f00e4
:103610008502630004827200141688000080fa009c
:10362000000006000000fa00c402a8000080fa00b2
:10363000000006000000fa00c402a9000080fa00a1
:10364000000006000000fa00241680000442780002
:103650006142620004c2ea00614262000482fb002f
:103660006102620026168000e5ff2f0085026300dc
:1036700004827200241688000080fa000000060010
:103680000000fa00100007000002eb00a408880008
:10369000f40880000440a0000450a100f408880051
:1036a000649f2500d40888008760a9009760a8005f
:1036b0000080fa00000006000000fa001fe1a800e8
:1036c0000080fa00000006000000fa001fe1a900d7
:1036d0000080fa00000006000400fa00b504800033
:1036e0000480200004826200e00f520006003200d5
:1036f0009760a900a4428000b5428000048fbe00fc
:103700009760a80003003700a4428000b542800003
:10371000048fbe001e02be000400be000080fa003e
:10372000000006000200fa00b504800004802000ba
:1037300004826200e00f5200060032009760a90088
:103740008485200014427800044f78009760a80018
:10375000030037008485200014427800044f78006d
:103760001e427800044078000080fa000000060045
:103770000000fa00b504800004802000048262008a
:10378000e00f5200060032009760a9000042eb00f3
:103790000440780058e8b7009760a800030037009d
:1037a0000042eb000440780058e8b7000080fa00bf
:1037b00000000600801f7800849fbe00869fbe0028
:1037c0000000fa00a4428000b5428000610242007d
:1037d000e0824a00a4428800b54288002023a90064
:1037e000a6428000b742800014002000050020009f
:1037f000060078000703780084037800050278004b
:10380000070060000402630005002000c022dd0004
:10381000040020000403be006102b800040373002a
:1038200085837300e00f5300e08f5b0003003a00d4
:1038300014c0b3000440780058e8b7008760a900be
:103840000080fa004f03be004f02be004f00780018
:10385000004006000000fa00c962a900c942a800a1
:10386000153a8000f40b20000483620064042000f9
:103870007505200027742000844b7800854b780064
:10388000864b78002535800004fe2f0004826200fc
:10389000a400b3002435880055368000f40f2e00b4
:1038a0008482620004302000048272005436880052
:1038b000153a800004042000048372006404200090
:1038c0007505200027742000844b7800854b780014
:1038d000864b78000080fa00000006000000fa0025
:1038e00021e2a90021a2a9002182a9002162a90048
:1038f000041180000480a1000490a100041188003c
:1039000020e2a90020c2a90020a2a9002082a900cb
:103910002062a900041180000410a1000420a1006d
:10392000041188002002a900b4002000441188007e
:1039300023e2a90023c2a90023a2a9002362a900af
:103940002342a9002322a9002302a9001411800008
:103950000460a1000470a1001411880022a2a90033
:103960002282a9002262a9002242a9002222a900e3
:103970002202a9008580a9009580a8008560a90081
:103980009560a80021e2a8002342a8000080fa0068
:10399000000006000000fa000002eb00344388003b
:1039a0000080fa00000006000000fa0034438000a6
:1039b000040078000080fa00000006000000fa0011
:1039c000e4822000040078000080fa000000060075
:1039d000849fbe00861f78000000fa0036438000f6
:1039e0003411800004427800e58220008502430003
:1039f000844a7800344380000402e800344388009d
:103a00008560a9000080fa004f0378004f02be00d5
:103a1000004006000000fa008580a9000080fa003e
:103a2000004006000000fa00100007000002eb0052
:103a300004088800240880000440a1000450a0006d
:103a40002408880044072700140888008460a9001f
:103a50009460a8000080fa00000006000000fa0050
:103a600005e1a8000080fa00000006000000fa004e
:103a700005e1a9000080fa00000006000400fa0039
:103a8000a404800068026200e00f520006003200c9
:103a90009460a9007442800085428000048fbe00bb
:103aa0009460a800030037007442800085428000c3
:103ab000048fbe001e02be000400be000080fa009b
:103ac000000006000200fa00a40480006802620000
:103ad000e00f5200060032009460a9002485200007
:103ae00014427800044f78009460a8000300370067
:103af0002485200014427800044f78001e4278008c
:103b0000044078000080fa00000006000000fa007f
:103b1000a404800068026200e00f52000600320038
:103b20009460a9000042eb000440780052e8b7001e
:103b30009460a800030037000042eb0004407800c6
:103b400052e8b7000080fa0000000600801f7800ed
:103b5000849fbe000000fa0074428000854280000d
:103b600061024200e0824a00744288008542880077
:103b700014c0b3000440780052e8b7008460a90084
:103b80000080fa004f02be004f007800004006009f
:103b90000000fa00100007000002eb003408880063
:103ba000840880000440a0000450a000840888001d
:103bb000040620006408880084e0a90094e0a900bd
:103bc0000080fa00000006000000fa0011e1a800e1
:103bd0000080fa00000006000000fa0011e1a900d0
:103be0000080fa00000006000000fa001000070044
:103bf0000002eb0054088800940880000440a000f4
:103c00000450a10094088800c43f22007408880072
:103c10008500a9009500a9000080fa0000000600b8
:103c20000000fa0013e1a8000080fa00000006007e
:103c30000000fa0013e1a9000080fa00000006006d
:020000040000fa
:103c4000f03fb1000180b10006003500ee0309002d
:103c500000000000403fb1000180b100fbff3d00cb
:103c60001000b000203fb0000200350000800900c5
:083c7000000000000000060046
:020000040000fa
:0200000401f009
:04000c00f8ff0000f9
:020000040000fa
:0200000401f009
:040010005bff000092
:020000040000fa
:0200000401f009
:040014007fff00006a
:020000040000fa
:0200000401f009
:04001800ffff0000e6
:020000040000fa
:0200000401f009
:04001c00dfff000002
:00000001FF
